:100000000C9462000C948A000C948A000C948A0070
:100010000C948A000C948A000C948A000C948A0038
:100020000C948A000C948A000C948A000C948A0028
:100030000C948A000C948A000C948A000C948A0018
:100040000C9425020C948A000C94C2000C948A0033
:100050000C948A000C948A000C948A000C948A00F8
:100060000C948A000C948A000000000024002700F1
:100070002A0000000000250028002B0000000000DE
:1000800023002600290004040404040404040202DA
:100090000202020203030303030301020408102007
:1000A0004080010204081020010204081020000012
:1000B0000007000201000003040600000000000029
:1000C0000000B70111241FBECFEFD8E0DEBFCDBFC7
:1000D00011E0A0E0B1E0E0E0F7E002C005900D9291
:1000E000AC30B107D9F711E0ACE0B1E001C01D922E
:1000F000AD3AB107E1F710E0C4ECD0E004C02297BC
:10010000FE010E947A03C23CD107C9F70E94BB00DE
:100110000C947E030C94000082E991E00E94680137
:100120008823D1F082E991E00E947C0190930D0137
:1001300080930C018136910521F08236910561F49E
:1001400006C08091000161E00E94C702089580917D
:10015000000160E00E94C70208958091000161E003
:100160000E94A70282E991E040E855E260E070E079
:100170000E94FF0008950E946D020E94AD000E943F
:100180008C00FDCF1F920F920FB60F9211242F9368
:100190003F934F935F936F937F938F939F93AF930F
:1001A000BF93EF93FF934091C600E0918E01F091D1
:1001B0008F01CF01019660E870E00E9414039C015A
:1001C00080919001909191012817390739F0E25FF1
:1001D000FE4F408330938F0120938E01FF91EF916A
:1001E000BF91AF919F918F917F916F915F914F914F
:1001F0003F912F910F900FBE0F901F901895AF92C7
:10020000BF92CF92DF92EF92FF920F931F93CF9303
:10021000DF936C017A018B01DC011496AD90BC90E8
:100220001597CB01BA0122E030E040E050E00E9497
:100230004903205C3D4B404F5F4FCA01B901A80103
:1002400097010E944903C901DA010197A109B10987
:10025000292F3A2F4B2F552747FD5A950196A11D5F
:10026000B11DE5012883E601EE81FF818150808385
:10027000EA85FB85208141E050E0CA010E8402C07E
:10028000880F991F0A94E2F7282B2083EA85FB85C3
:100290002081CA010F8402C0880F991F0A94E2F7D7
:1002A000282B2083EA85FB858081088802C0440FC3
:1002B000551F0A94E2F7842B8083DF91CF911F9121
:1002C0000F91FF90EF90DF90CF90BF90AF90089587
:1002D000DC011296ED91FC911397E058FF4F81914C
:1002E000919180589F4F20813181821B930B60E850
:1002F00070E00E9414030895CF93DF93DC011296FF
:10030000ED91FC911397EF01CE57DF4F4881598152
:10031000E058FF4F80819181E058F04084179507A5
:1003200019F42FEF3FEF0CC0E40FF51F2081CA0135
:10033000019660E870E00E9414039983888330E09E
:10034000C901DF91CF910895FC01A085B185218974
:100350008C9190E0022E02C0959587950A94E2F761
:1003600080FFF6CF0484F585E02D6083089586E054
:1003700091E090939301809392018EE091E09093AD
:1003800095018093940185EC90E090939701809380
:10039000960184EC90E0909399018093980180EC11
:1003A00090E090939B0180939A0181EC90E0909370
:1003B0009D0180939C0186EC90E090939F01809337
:1003C0009E0184E08093A00183E08093A10187E0F7
:1003D0008093A20185E08093A30108950F931F935A
:1003E000CF93DF938C01EB0109C02196D801ED91E9
:1003F000FC910190F081E02DC80109956881662388
:10040000A1F7DF91CF911F910F910895EF92FF9285
:100410000F931F93CF93DF938C017B01EA010CC0F4
:10042000D7016D917D01D801ED91FC910190F08192
:10043000E02DC80109952197209791F7DF91CF9181
:100440001F910F91FF90EF9008951F920F920FB69A
:100450000F9211242F933F938F939F93AF93BF934A
:100460008091A8019091A901A091AA01B091AB013E
:100470003091AC010196A11DB11D232F2D5F2D37A9
:1004800020F02D570196A11DB11D2093AC01809342
:10049000A8019093A901A093AA01B093AB01809108
:1004A000A4019091A501A091A601B091A701019688
:1004B000A11DB11D8093A4019093A501A093A60155
:1004C000B093A701BF91AF919F918F913F912F91D1
:1004D0000F900FBE0F901F901895789484B582608E
:1004E00084BD84B5816084BD85B5826085BD85B5D8
:1004F000816085BDEEE6F0E0808181608083E1E887
:10050000F0E0808182608083808181608083E0E888
:10051000F0E0808181608083E1EBF0E080818460A5
:100520008083E0EBF0E0808181608083EAE7F0E0A7
:10053000808184608083808182608083808181600B
:1005400080838081806880831092C1000895282F65
:1005500030E0C90186569F4FFC0194912A573F4FC6
:10056000F9018491882391F0E82FF0E0EE0FFF1F4E
:10057000E859FF4FA591B491662329F48C91909589
:1005800089238C9308958C91892B8C930895482FFF
:1005900050E0CA0182559F4FFC012491CA01865642
:1005A0009F4FFC0194914A575F4FFA0134913323D6
:1005B000D1F1222331F1233021F4809180008F7713
:1005C00005C0243031F4809180008F7D80938000BD
:1005D00018C0213019F484B58F7704C0223021F47B
:1005E00084B58F7D84BD0DC0263021F48091B0008C
:1005F0008F7705C0273029F48091B0008F7D8093DC
:10060000B000E32FF0E0EE0FFF1FEE58FF4FA59173
:10061000B491662329F48C91909589238C93089545
:100620008C91892B8C93089597FB092E07260AD06D
:1006300077FD04D049D006D000201AF4709561955A
:100640007F4F0895F6F7909581959F4F0895A1E209
:100650001A2EAA1BBB1BFD010DC0AA1FBB1FEE1F3C
:10066000FF1FA217B307E407F50720F0A21BB30B87
:10067000E40BF50B661F771F881F991F1A9469F703
:1006800060957095809590959B01AC01BD01CF015F
:10069000089597FB092E05260ED057FD04D0D7DF0D
:1006A0000AD0001C38F450954095309521953F4F65
:1006B0004F4F5F4F0895F6F790958095709561952F
:1006C0007F4F8F4F9F4F0895AA1BBB1B51E107C05F
:1006D000AA1FBB1FA617B70710F0A61BB70B881FD2
:1006E000991F5A95A9F780959095BC01CD01089561
:1006F000EE0FFF1F0590F491E02D0994F894FFCFC1
:0C070000090000000000A401EE01060248
:00000001FF
